{
  "contractName": "Voting",
  "abi": [
    {
      "inputs": [],
      "stateMutability": "nonpayable",
      "type": "constructor"
    },
    {
      "inputs": [],
      "name": "flag",
      "outputs": [
        {
          "internalType": "bool",
          "name": "",
          "type": "bool"
        }
      ],
      "stateMutability": "view",
      "type": "function",
      "constant": true
    },
    {
      "inputs": [
        {
          "internalType": "uint256",
          "name": "",
          "type": "uint256"
        }
      ],
      "name": "newCandidates",
      "outputs": [
        {
          "internalType": "string",
          "name": "name",
          "type": "string"
        },
        {
          "internalType": "string",
          "name": "party",
          "type": "string"
        },
        {
          "internalType": "uint256",
          "name": "age",
          "type": "uint256"
        },
        {
          "internalType": "uint256",
          "name": "votes",
          "type": "uint256"
        }
      ],
      "stateMutability": "view",
      "type": "function",
      "constant": true
    },
    {
      "inputs": [],
      "name": "owner",
      "outputs": [
        {
          "internalType": "address",
          "name": "",
          "type": "address"
        }
      ],
      "stateMutability": "view",
      "type": "function",
      "constant": true
    },
    {
      "inputs": [],
      "name": "resultFlag",
      "outputs": [
        {
          "internalType": "uint256",
          "name": "",
          "type": "uint256"
        }
      ],
      "stateMutability": "view",
      "type": "function",
      "constant": true
    },
    {
      "inputs": [
        {
          "internalType": "address",
          "name": "",
          "type": "address"
        }
      ],
      "name": "voters",
      "outputs": [
        {
          "internalType": "string",
          "name": "name",
          "type": "string"
        },
        {
          "internalType": "uint256",
          "name": "id",
          "type": "uint256"
        },
        {
          "internalType": "bool",
          "name": "status",
          "type": "bool"
        },
        {
          "internalType": "bool",
          "name": "votted",
          "type": "bool"
        }
      ],
      "stateMutability": "view",
      "type": "function",
      "constant": true
    },
    {
      "inputs": [
        {
          "internalType": "string",
          "name": "_name",
          "type": "string"
        },
        {
          "internalType": "uint256",
          "name": "_id",
          "type": "uint256"
        }
      ],
      "name": "addVoters",
      "outputs": [],
      "stateMutability": "nonpayable",
      "type": "function"
    },
    {
      "inputs": [
        {
          "internalType": "string",
          "name": "_name",
          "type": "string"
        },
        {
          "internalType": "uint256",
          "name": "_age",
          "type": "uint256"
        },
        {
          "internalType": "string",
          "name": "_party",
          "type": "string"
        }
      ],
      "name": "addCandidate",
      "outputs": [],
      "stateMutability": "nonpayable",
      "type": "function"
    },
    {
      "inputs": [
        {
          "internalType": "uint256",
          "name": "index",
          "type": "uint256"
        }
      ],
      "name": "vote",
      "outputs": [],
      "stateMutability": "nonpayable",
      "type": "function"
    },
    {
      "inputs": [],
      "name": "set_flag",
      "outputs": [],
      "stateMutability": "nonpayable",
      "type": "function"
    },
    {
      "inputs": [],
      "name": "get_length",
      "outputs": [
        {
          "internalType": "uint256",
          "name": "",
          "type": "uint256"
        }
      ],
      "stateMutability": "view",
      "type": "function",
      "constant": true
    },
    {
      "inputs": [],
      "name": "get_candidateList",
      "outputs": [
        {
          "components": [
            {
              "internalType": "string",
              "name": "name",
              "type": "string"
            },
            {
              "internalType": "string",
              "name": "party",
              "type": "string"
            },
            {
              "internalType": "uint256",
              "name": "age",
              "type": "uint256"
            },
            {
              "internalType": "uint256",
              "name": "votes",
              "type": "uint256"
            }
          ],
          "internalType": "struct Voting.candidate[]",
          "name": "",
          "type": "tuple[]"
        }
      ],
      "stateMutability": "view",
      "type": "function",
      "constant": true
    },
    {
      "inputs": [],
      "name": "get_vottedDetails",
      "outputs": [
        {
          "internalType": "bool",
          "name": "",
          "type": "bool"
        }
      ],
      "stateMutability": "view",
      "type": "function",
      "constant": true
    }
  ],
  "bytecode": "0x608060405260008060146101000a81548160ff021916908315150217905550600060015534801561002f57600080fd5b50336000806101000a81548173ffffffffffffffffffffffffffffffffffffffff021916908373ffffffffffffffffffffffffffffffffffffffff1602179055506115498061007f6000396000f3fe608060405234801561001057600080fd5b50600436106100b45760003560e01c8063c84f9c6211610071578063c84f9c6214610195578063caff23881461019f578063e74f9252146101bd578063ebd83d6b146101d9578063eec37691146101f7578063f468382014610215576100b4565b80630121b93f146100b95780632376728b146100d5578063890eba68146100f35780638da5cb5b14610111578063a3ec138d1461012f578063a447605e14610162575b600080fd5b6100d360048036038101906100ce9190610c11565b610231565b005b6100dd6103eb565b6040516100ea9190610c4d565b60405180910390f35b6100fb6103f1565b6040516101089190610c83565b60405180910390f35b610119610404565b6040516101269190610cdf565b60405180910390f35b61014960048036038101906101449190610d26565b610428565b6040516101599493929190610dec565b60405180910390f35b61017c60048036038101906101779190610c11565b6104fa565b60405161018c9493929190610e38565b60405180910390f35b61019d61064a565b005b6101a761068f565b6040516101b49190611010565b60405180910390f35b6101d760048036038101906101d29190611167565b610826565b005b6101e161095c565b6040516101ee9190610c83565b60405180910390f35b6101ff6109b3565b60405161020c9190610c4d565b60405180910390f35b61022f600480360381019061022a91906111f2565b6109c0565b005b600260003373ffffffffffffffffffffffffffffffffffffffff1673ffffffffffffffffffffffffffffffffffffffff16815260200190815260200160002060020160009054906101000a900460ff166102c0576040517f08c379a00000000000000000000000000000000000000000000000000000000081526004016102b79061129a565b60405180910390fd5b600260003373ffffffffffffffffffffffffffffffffffffffff1673ffffffffffffffffffffffffffffffffffffffff16815260200190815260200160002060020160019054906101000a900460ff1615610350576040517f08c379a000000000000000000000000000000000000000000000000000000000815260040161034790611306565b60405180910390fd5b60016003828154811061036657610365611326565b5b906000526020600020906004020160030160008282546103869190611384565b925050819055506001600260003373ffffffffffffffffffffffffffffffffffffffff1673ffffffffffffffffffffffffffffffffffffffff16815260200190815260200160002060020160016101000a81548160ff02191690831515021790555050565b60015481565b600060149054906101000a900460ff1681565b60008054906101000a900473ffffffffffffffffffffffffffffffffffffffff1681565b600260205280600052604060002060009150905080600001805461044b90611409565b80601f016020809104026020016040519081016040528092919081815260200182805461047790611409565b80156104c45780601f10610499576101008083540402835291602001916104c4565b820191906000526020600020905b8154815290600101906020018083116104a757829003601f168201915b5050505050908060010154908060020160009054906101000a900460ff16908060020160019054906101000a900460ff16905084565b6003818154811061050a57600080fd5b906000526020600020906004020160009150905080600001805461052d90611409565b80601f016020809104026020016040519081016040528092919081815260200182805461055990611409565b80156105a65780601f1061057b576101008083540402835291602001916105a6565b820191906000526020600020905b81548152906001019060200180831161058957829003601f168201915b5050505050908060010180546105bb90611409565b80601f01602080910402602001604051908101604052809291908181526020018280546105e790611409565b80156106345780601f1061060957610100808354040283529160200191610634565b820191906000526020600020905b81548152906001019060200180831161061757829003601f168201915b5050505050908060020154908060030154905084565b600060149054906101000a900460ff1615600060146101000a81548160ff02191690831515021790555060018060008282546106869190611384565b92505081905550565b60606003805480602002602001604051908101604052809291908181526020016000905b8282101561081d57838290600052602060002090600402016040518060800160405290816000820180546106e690611409565b80601f016020809104026020016040519081016040528092919081815260200182805461071290611409565b801561075f5780601f106107345761010080835404028352916020019161075f565b820191906000526020600020905b81548152906001019060200180831161074257829003601f168201915b5050505050815260200160018201805461077890611409565b80601f01602080910402602001604051908101604052809291908181526020018280546107a490611409565b80156107f15780601f106107c6576101008083540402835291602001916107f1565b820191906000526020600020905b8154815290600101906020018083116107d457829003601f168201915b5050505050815260200160028201548152602001600382015481525050815260200190600101906106b3565b50505050905090565b60008054906101000a900473ffffffffffffffffffffffffffffffffffffffff1673ffffffffffffffffffffffffffffffffffffffff163373ffffffffffffffffffffffffffffffffffffffff16146108b4576040517f08c379a00000000000000000000000000000000000000000000000000000000081526004016108ab90611487565b60405180910390fd5b600060405180608001604052808581526020018381526020018481526020016000815250905060038190806001815401808255809150506001900390600052602060002090600402016000909190919091506000820151816000019080519060200190610922929190610b24565b50602082015181600101908051906020019061093f929190610b24565b506040820151816002015560608201518160030155505050505050565b6000600260003373ffffffffffffffffffffffffffffffffffffffff1673ffffffffffffffffffffffffffffffffffffffff16815260200190815260200160002060020160019054906101000a900460ff16905090565b6000600380549050905090565b600260003373ffffffffffffffffffffffffffffffffffffffff1673ffffffffffffffffffffffffffffffffffffffff16815260200190815260200160002060020160009054906101000a900460ff1615610a50576040517f08c379a0000000000000000000000000000000000000000000000000000000008152600401610a47906114f3565b60405180910390fd5b604051806080016040528083815260200182815260200160011515815260200160001515815250600260003373ffffffffffffffffffffffffffffffffffffffff1673ffffffffffffffffffffffffffffffffffffffff1681526020019081526020016000206000820151816000019080519060200190610ad2929190610b24565b506020820151816001015560408201518160020160006101000a81548160ff02191690831515021790555060608201518160020160016101000a81548160ff0219169083151502179055509050505050565b828054610b3090611409565b90600052602060002090601f016020900481019282610b525760008555610b99565b82601f10610b6b57805160ff1916838001178555610b99565b82800160010185558215610b99579182015b82811115610b98578251825591602001919060010190610b7d565b5b509050610ba69190610baa565b5090565b5b80821115610bc3576000816000905550600101610bab565b5090565b6000604051905090565b600080fd5b600080fd5b6000819050919050565b610bee81610bdb565b8114610bf957600080fd5b50565b600081359050610c0b81610be5565b92915050565b600060208284031215610c2757610c26610bd1565b5b6000610c3584828501610bfc565b91505092915050565b610c4781610bdb565b82525050565b6000602082019050610c626000830184610c3e565b92915050565b60008115159050919050565b610c7d81610c68565b82525050565b6000602082019050610c986000830184610c74565b92915050565b600073ffffffffffffffffffffffffffffffffffffffff82169050919050565b6000610cc982610c9e565b9050919050565b610cd981610cbe565b82525050565b6000602082019050610cf46000830184610cd0565b92915050565b610d0381610cbe565b8114610d0e57600080fd5b50565b600081359050610d2081610cfa565b92915050565b600060208284031215610d3c57610d3b610bd1565b5b6000610d4a84828501610d11565b91505092915050565b600081519050919050565b600082825260208201905092915050565b60005b83811015610d8d578082015181840152602081019050610d72565b83811115610d9c576000848401525b50505050565b6000601f19601f8301169050919050565b6000610dbe82610d53565b610dc88185610d5e565b9350610dd8818560208601610d6f565b610de181610da2565b840191505092915050565b60006080820190508181036000830152610e068187610db3565b9050610e156020830186610c3e565b610e226040830185610c74565b610e2f6060830184610c74565b95945050505050565b60006080820190508181036000830152610e528187610db3565b90508181036020830152610e668186610db3565b9050610e756040830185610c3e565b610e826060830184610c3e565b95945050505050565b600081519050919050565b600082825260208201905092915050565b6000819050602082019050919050565b600082825260208201905092915050565b6000610ed382610d53565b610edd8185610eb7565b9350610eed818560208601610d6f565b610ef681610da2565b840191505092915050565b610f0a81610bdb565b82525050565b60006080830160008301518482036000860152610f2d8282610ec8565b91505060208301518482036020860152610f478282610ec8565b9150506040830151610f5c6040860182610f01565b506060830151610f6f6060860182610f01565b508091505092915050565b6000610f868383610f10565b905092915050565b6000602082019050919050565b6000610fa682610e8b565b610fb08185610e96565b935083602082028501610fc285610ea7565b8060005b85811015610ffe5784840389528151610fdf8582610f7a565b9450610fea83610f8e565b925060208a01995050600181019050610fc6565b50829750879550505050505092915050565b6000602082019050818103600083015261102a8184610f9b565b905092915050565b600080fd5b600080fd5b7f4e487b7100000000000000000000000000000000000000000000000000000000600052604160045260246000fd5b61107482610da2565b810181811067ffffffffffffffff821117156110935761109261103c565b5b80604052505050565b60006110a6610bc7565b90506110b2828261106b565b919050565b600067ffffffffffffffff8211156110d2576110d161103c565b5b6110db82610da2565b9050602081019050919050565b82818337600083830152505050565b600061110a611105846110b7565b61109c565b90508281526020810184848401111561112657611125611037565b5b6111318482856110e8565b509392505050565b600082601f83011261114e5761114d611032565b5b813561115e8482602086016110f7565b91505092915050565b6000806000606084860312156111805761117f610bd1565b5b600084013567ffffffffffffffff81111561119e5761119d610bd6565b5b6111aa86828701611139565b93505060206111bb86828701610bfc565b925050604084013567ffffffffffffffff8111156111dc576111db610bd6565b5b6111e886828701611139565b9150509250925092565b6000806040838503121561120957611208610bd1565b5b600083013567ffffffffffffffff81111561122757611226610bd6565b5b61123385828601611139565b925050602061124485828601610bfc565b9150509250929050565b7f596f7520617265206e6f7420566f746572000000000000000000000000000000600082015250565b6000611284601183610d5e565b915061128f8261124e565b602082019050919050565b600060208201905081810360008301526112b381611277565b9050919050565b7f596f7520416c726561647920566f747465640000000000000000000000000000600082015250565b60006112f0601283610d5e565b91506112fb826112ba565b602082019050919050565b6000602082019050818103600083015261131f816112e3565b9050919050565b7f4e487b7100000000000000000000000000000000000000000000000000000000600052603260045260246000fd5b7f4e487b7100000000000000000000000000000000000000000000000000000000600052601160045260246000fd5b600061138f82610bdb565b915061139a83610bdb565b9250827fffffffffffffffffffffffffffffffffffffffffffffffffffffffffffffffff038211156113cf576113ce611355565b5b828201905092915050565b7f4e487b7100000000000000000000000000000000000000000000000000000000600052602260045260246000fd5b6000600282049050600182168061142157607f821691505b60208210811415611435576114346113da565b5b50919050565b7f4d7573742062652041646d696e00000000000000000000000000000000000000600082015250565b6000611471600d83610d5e565b915061147c8261143b565b602082019050919050565b600060208201905081810360008301526114a081611464565b9050919050565b7f596f752061726520616c72656164792041646465640000000000000000000000600082015250565b60006114dd601583610d5e565b91506114e8826114a7565b602082019050919050565b6000602082019050818103600083015261150c816114d0565b905091905056fea264697066735822122013950bb90a2d5594adcf0a0f1b707b197532348d20e4557e9fd25024c181c46364736f6c63430008090033",
  "immutableReferences": {},
  "source": "// SPDX-License-Identifier: MIT\r\npragma solidity >=0.4.22 <0.9.0;\r\n\r\ncontract Voting {\r\n    address public owner;\r\n    bool public flag = false;\r\n    uint256 public resultFlag = 0;\r\n    struct voter {\r\n        string name;\r\n        uint256 id;\r\n        bool status;\r\n        bool votted;\r\n    }\r\n    mapping(address => voter) public voters;\r\n    struct candidate {\r\n        string name;\r\n        string party;\r\n        uint256 age;\r\n        uint256 votes;\r\n    }\r\n    candidate[] public newCandidates;\r\n\r\n    constructor() {\r\n        owner = msg.sender;\r\n    }\r\n\r\n    modifier ownerOnly() {\r\n        require(msg.sender == owner, \"Must be Admin\");\r\n        _;\r\n    }\r\n\r\n    modifier check_voter() {\r\n        require(voters[msg.sender].status, \"You are not Voter\");\r\n        _;\r\n    }\r\n\r\n    function addVoters(string memory _name, uint256 _id) public {\r\n        require(!voters[msg.sender].status, \"You are already Added\");\r\n        voters[msg.sender] = voter(_name, _id, true, false);\r\n    }\r\n\r\n    function addCandidate(\r\n        string memory _name,\r\n        uint256 _age,\r\n        string memory _party\r\n    ) public ownerOnly {\r\n        candidate memory nCandidate = candidate({\r\n            name: _name,\r\n            party: _party,\r\n            age: _age,\r\n            votes: 0\r\n        });\r\n        newCandidates.push(nCandidate);\r\n    }\r\n\r\n    function vote(uint256 index) public check_voter {\r\n        require(!voters[msg.sender].votted, \"You Already Votted\");\r\n        newCandidates[index].votes += 1;\r\n        voters[msg.sender].votted = true;\r\n    }\r\n\r\n    function set_flag() public {\r\n        flag = !flag;\r\n        resultFlag += 1;\r\n    }\r\n\r\n    function get_length() public view returns (uint256) {\r\n        return newCandidates.length;\r\n    }\r\n\r\n    function get_candidateList() public view returns (candidate[] memory) {\r\n        return newCandidates;\r\n    }\r\n\r\n    function get_vottedDetails() public view returns (bool) {\r\n        return (voters[msg.sender].votted);\r\n    }\r\n}\r\n",
  "sourcePath": "C:\\Users\\Akki\\Desktop\\My_Project\\contracts\\Voting.sol",
  "compiler": {
    "name": "solc",
    "version": "0.8.9+commit.e5eed63a.Emscripten.clang"
  },
  "schemaVersion": "3.4.4",
  "updatedAt": "2022-03-03T15:50:03.120Z",
  "networkType": "ethereum",
  "devdoc": {
    "kind": "dev",
    "methods": {},
    "version": 1
  },
  "userdoc": {
    "kind": "user",
    "methods": {},
    "version": 1
  }
}