{
  "contractName": "Voting",
  "abi": [
    {
      "inputs": [],
      "stateMutability": "nonpayable",
      "type": "constructor"
    },
    {
      "inputs": [
        {
          "internalType": "uint256",
          "name": "",
          "type": "uint256"
        }
      ],
      "name": "newCandidates",
      "outputs": [
        {
          "internalType": "string",
          "name": "name",
          "type": "string"
        },
        {
          "internalType": "string",
          "name": "party",
          "type": "string"
        },
        {
          "internalType": "uint256",
          "name": "age",
          "type": "uint256"
        },
        {
          "internalType": "uint256",
          "name": "votes",
          "type": "uint256"
        }
      ],
      "stateMutability": "view",
      "type": "function"
    },
    {
      "inputs": [],
      "name": "owner",
      "outputs": [
        {
          "internalType": "address",
          "name": "",
          "type": "address"
        }
      ],
      "stateMutability": "view",
      "type": "function"
    },
    {
      "inputs": [
        {
          "internalType": "address",
          "name": "",
          "type": "address"
        }
      ],
      "name": "voters",
      "outputs": [
        {
          "internalType": "string",
          "name": "name",
          "type": "string"
        },
        {
          "internalType": "uint256",
          "name": "id",
          "type": "uint256"
        },
        {
          "internalType": "bool",
          "name": "status",
          "type": "bool"
        },
        {
          "internalType": "bool",
          "name": "votted",
          "type": "bool"
        }
      ],
      "stateMutability": "view",
      "type": "function"
    },
    {
      "inputs": [
        {
          "internalType": "string",
          "name": "_name",
          "type": "string"
        },
        {
          "internalType": "uint256",
          "name": "_id",
          "type": "uint256"
        }
      ],
      "name": "addVoters",
      "outputs": [],
      "stateMutability": "nonpayable",
      "type": "function"
    },
    {
      "inputs": [
        {
          "internalType": "string",
          "name": "_name",
          "type": "string"
        },
        {
          "internalType": "uint256",
          "name": "_age",
          "type": "uint256"
        },
        {
          "internalType": "string",
          "name": "_party",
          "type": "string"
        }
      ],
      "name": "addCandidate",
      "outputs": [],
      "stateMutability": "nonpayable",
      "type": "function"
    },
    {
      "inputs": [
        {
          "internalType": "uint256",
          "name": "index",
          "type": "uint256"
        }
      ],
      "name": "vote",
      "outputs": [],
      "stateMutability": "nonpayable",
      "type": "function"
    }
  ],
  "bytecode": "0x608060405234801561001057600080fd5b50336000806101000a81548173ffffffffffffffffffffffffffffffffffffffff021916908373ffffffffffffffffffffffffffffffffffffffff160217905550611020806100606000396000f3fe608060405234801561001057600080fd5b50600436106100625760003560e01c80630121b93f146100675780638da5cb5b14610083578063a3ec138d146100a1578063a447605e146100d4578063e74f925214610107578063f468382014610123575b600080fd5b610081600480360381019061007c91906108c5565b61013f565b005b61008b6102f8565b6040516100989190610933565b60405180910390f35b6100bb60048036038101906100b6919061097a565b61031c565b6040516100cb9493929190610a6a565b60405180910390f35b6100ee60048036038101906100e991906108c5565b6103ee565b6040516100fe9493929190610ab6565b60405180910390f35b610121600480360381019061011c9190610c3e565b61053e565b005b61013d60048036038101906101389190610cc9565b610674565b005b600160003373ffffffffffffffffffffffffffffffffffffffff1673ffffffffffffffffffffffffffffffffffffffff16815260200190815260200160002060020160009054906101000a900460ff166101ce576040517f08c379a00000000000000000000000000000000000000000000000000000000081526004016101c590610d71565b60405180910390fd5b600160003373ffffffffffffffffffffffffffffffffffffffff1673ffffffffffffffffffffffffffffffffffffffff16815260200190815260200160002060020160019054906101000a900460ff161561025e576040517f08c379a000000000000000000000000000000000000000000000000000000000815260040161025590610ddd565b60405180910390fd5b60016002828154811061027457610273610dfd565b5b906000526020600020906004020160030160008282546102949190610e5b565b9250508190555060018060003373ffffffffffffffffffffffffffffffffffffffff1673ffffffffffffffffffffffffffffffffffffffff16815260200190815260200160002060020160016101000a81548160ff02191690831515021790555050565b60008054906101000a900473ffffffffffffffffffffffffffffffffffffffff1681565b600160205280600052604060002060009150905080600001805461033f90610ee0565b80601f016020809104026020016040519081016040528092919081815260200182805461036b90610ee0565b80156103b85780601f1061038d576101008083540402835291602001916103b8565b820191906000526020600020905b81548152906001019060200180831161039b57829003601f168201915b5050505050908060010154908060020160009054906101000a900460ff16908060020160019054906101000a900460ff16905084565b600281815481106103fe57600080fd5b906000526020600020906004020160009150905080600001805461042190610ee0565b80601f016020809104026020016040519081016040528092919081815260200182805461044d90610ee0565b801561049a5780601f1061046f5761010080835404028352916020019161049a565b820191906000526020600020905b81548152906001019060200180831161047d57829003601f168201915b5050505050908060010180546104af90610ee0565b80601f01602080910402602001604051908101604052809291908181526020018280546104db90610ee0565b80156105285780601f106104fd57610100808354040283529160200191610528565b820191906000526020600020905b81548152906001019060200180831161050b57829003601f168201915b5050505050908060020154908060030154905084565b60008054906101000a900473ffffffffffffffffffffffffffffffffffffffff1673ffffffffffffffffffffffffffffffffffffffff163373ffffffffffffffffffffffffffffffffffffffff16146105cc576040517f08c379a00000000000000000000000000000000000000000000000000000000081526004016105c390610f5e565b60405180910390fd5b60006040518060800160405280858152602001838152602001848152602001600081525090506002819080600181540180825580915050600190039060005260206000209060040201600090919091909150600082015181600001908051906020019061063a9291906107d8565b5060208201518160010190805190602001906106579291906107d8565b506040820151816002015560608201518160030155505050505050565b600160003373ffffffffffffffffffffffffffffffffffffffff1673ffffffffffffffffffffffffffffffffffffffff16815260200190815260200160002060020160009054906101000a900460ff1615610704576040517f08c379a00000000000000000000000000000000000000000000000000000000081526004016106fb90610fca565b60405180910390fd5b604051806080016040528083815260200182815260200160011515815260200160001515815250600160003373ffffffffffffffffffffffffffffffffffffffff1673ffffffffffffffffffffffffffffffffffffffff16815260200190815260200160002060008201518160000190805190602001906107869291906107d8565b506020820151816001015560408201518160020160006101000a81548160ff02191690831515021790555060608201518160020160016101000a81548160ff0219169083151502179055509050505050565b8280546107e490610ee0565b90600052602060002090601f016020900481019282610806576000855561084d565b82601f1061081f57805160ff191683800117855561084d565b8280016001018555821561084d579182015b8281111561084c578251825591602001919060010190610831565b5b50905061085a919061085e565b5090565b5b8082111561087757600081600090555060010161085f565b5090565b6000604051905090565b600080fd5b600080fd5b6000819050919050565b6108a28161088f565b81146108ad57600080fd5b50565b6000813590506108bf81610899565b92915050565b6000602082840312156108db576108da610885565b5b60006108e9848285016108b0565b91505092915050565b600073ffffffffffffffffffffffffffffffffffffffff82169050919050565b600061091d826108f2565b9050919050565b61092d81610912565b82525050565b60006020820190506109486000830184610924565b92915050565b61095781610912565b811461096257600080fd5b50565b6000813590506109748161094e565b92915050565b6000602082840312156109905761098f610885565b5b600061099e84828501610965565b91505092915050565b600081519050919050565b600082825260208201905092915050565b60005b838110156109e15780820151818401526020810190506109c6565b838111156109f0576000848401525b50505050565b6000601f19601f8301169050919050565b6000610a12826109a7565b610a1c81856109b2565b9350610a2c8185602086016109c3565b610a35816109f6565b840191505092915050565b610a498161088f565b82525050565b60008115159050919050565b610a6481610a4f565b82525050565b60006080820190508181036000830152610a848187610a07565b9050610a936020830186610a40565b610aa06040830185610a5b565b610aad6060830184610a5b565b95945050505050565b60006080820190508181036000830152610ad08187610a07565b90508181036020830152610ae48186610a07565b9050610af36040830185610a40565b610b006060830184610a40565b95945050505050565b600080fd5b600080fd5b7f4e487b7100000000000000000000000000000000000000000000000000000000600052604160045260246000fd5b610b4b826109f6565b810181811067ffffffffffffffff82111715610b6a57610b69610b13565b5b80604052505050565b6000610b7d61087b565b9050610b898282610b42565b919050565b600067ffffffffffffffff821115610ba957610ba8610b13565b5b610bb2826109f6565b9050602081019050919050565b82818337600083830152505050565b6000610be1610bdc84610b8e565b610b73565b905082815260208101848484011115610bfd57610bfc610b0e565b5b610c08848285610bbf565b509392505050565b600082601f830112610c2557610c24610b09565b5b8135610c35848260208601610bce565b91505092915050565b600080600060608486031215610c5757610c56610885565b5b600084013567ffffffffffffffff811115610c7557610c7461088a565b5b610c8186828701610c10565b9350506020610c92868287016108b0565b925050604084013567ffffffffffffffff811115610cb357610cb261088a565b5b610cbf86828701610c10565b9150509250925092565b60008060408385031215610ce057610cdf610885565b5b600083013567ffffffffffffffff811115610cfe57610cfd61088a565b5b610d0a85828601610c10565b9250506020610d1b858286016108b0565b9150509250929050565b7f596f7520617265206e6f7420566f746572000000000000000000000000000000600082015250565b6000610d5b6011836109b2565b9150610d6682610d25565b602082019050919050565b60006020820190508181036000830152610d8a81610d4e565b9050919050565b7f596f7520416c726561647920566f747465640000000000000000000000000000600082015250565b6000610dc76012836109b2565b9150610dd282610d91565b602082019050919050565b60006020820190508181036000830152610df681610dba565b9050919050565b7f4e487b7100000000000000000000000000000000000000000000000000000000600052603260045260246000fd5b7f4e487b7100000000000000000000000000000000000000000000000000000000600052601160045260246000fd5b6000610e668261088f565b9150610e718361088f565b9250827fffffffffffffffffffffffffffffffffffffffffffffffffffffffffffffffff03821115610ea657610ea5610e2c565b5b828201905092915050565b7f4e487b7100000000000000000000000000000000000000000000000000000000600052602260045260246000fd5b60006002820490506001821680610ef857607f821691505b60208210811415610f0c57610f0b610eb1565b5b50919050565b7f4d7573742062652041646d696e00000000000000000000000000000000000000600082015250565b6000610f48600d836109b2565b9150610f5382610f12565b602082019050919050565b60006020820190508181036000830152610f7781610f3b565b9050919050565b7f596f752061726520616c72656164792041646465640000000000000000000000600082015250565b6000610fb46015836109b2565b9150610fbf82610f7e565b602082019050919050565b60006020820190508181036000830152610fe381610fa7565b905091905056fea26469706673582212208acf29ccc8844230117cb34c37637a2d8aad9caa7ca9cc4ea2bbafe2d53b469a64736f6c634300080a0033",
  "immutableReferences": {},
  "source": "// SPDX-License-Identifier: MIT\r\npragma solidity >=0.4.22 <0.9.0;\r\n\r\ncontract Voting {\r\n    address public owner;\r\n    struct voter {\r\n        string name;\r\n        uint256 id;\r\n        bool status;\r\n        bool votted;\r\n    }\r\n    mapping(address => voter) public voters;\r\n    struct candidate {\r\n        string name;\r\n        string party;\r\n        uint256 age;\r\n        uint256 votes;\r\n    }\r\n    candidate[] public newCandidates;\r\n\r\n    constructor() {\r\n        owner = msg.sender;\r\n    }\r\n\r\n    modifier ownerOnly() {\r\n        require(msg.sender == owner, \"Must be Admin\");\r\n        _;\r\n    }\r\n\r\n    modifier check_voter() {\r\n        require(voters[msg.sender].status, \"You are not Voter\");\r\n        _;\r\n    }\r\n\r\n    function addVoters(string memory _name, uint256 _id) public {\r\n        require(!voters[msg.sender].status, \"You are already Added\");\r\n        voters[msg.sender] = voter(_name, _id, true, false);\r\n    }\r\n\r\n    function addCandidate(\r\n        string memory _name,\r\n        uint256 _age,\r\n        string memory _party\r\n    ) public ownerOnly {\r\n        candidate memory nCandidate = candidate({\r\n            name: _name,\r\n            party: _party,\r\n            age: _age,\r\n            votes: 0\r\n        });\r\n        newCandidates.push(nCandidate);\r\n    }\r\n\r\n    function vote(uint256 index) public check_voter {\r\n        require(!voters[msg.sender].votted, \"You Already Votted\");\r\n        newCandidates[index].votes += 1;\r\n        voters[msg.sender].votted = true;\r\n    }\r\n}\r\n",
  "sourcePath": "C:\\Users\\Akki\\Desktop\\My_Project\\contracts\\Voting.sol",
  "compiler": {
    "name": "solc",
    "version": "0.8.10+commit.fc410830.Emscripten.clang"
  },
  "schemaVersion": "3.4.4",
  "updatedAt": "2022-02-14T15:59:22.853Z",
  "devdoc": {
    "kind": "dev",
    "methods": {},
    "version": 1
  },
  "userdoc": {
    "kind": "user",
    "methods": {},
    "version": 1
  }
}